:10000000000004308A006E2CFF00030E8301A10063
:100010007F08A0000A08A7008A01A00E0408A20019
:100020007708A3007808A4007908A5007A08A6003C
:10003000831383128B1E1E280B1954282208840058
:100040002308F7002408F8002508F9002608FA001C
:1000500027088A00210E8300FF0E7F0E09000A1078
:100060008A100A11820700341F343B345A34783422
:100070009734B534D434F334113430344E340A1058
:100080008A100A1182073034313432343334343434
:1000900035343634373438343934413442344334E7
:1000A00044344534463400344C080319CD03CC0B9A
:1000B0007528CD08031D75280F30ED00ED080319D4
:1000C000712828306D0784008313800A00080A3CD9
:1000D000031D71286D08ED03283E84008313800101
:1000E0005E280F30CD004230CC00CE0B9D284F1C37
:1000F0007B2807147C280710CF1C802887148128B0
:1001000087104F1D85280715862807114F080F3CBB
:10011000283E84008313000EEE00F030EE052830F8
:100120004F07840083130008EE046E088500013039
:100130004F070739CF000330CE000B118A111E285C
:10014000713083168F000F0883120317870188010F
:10015000890183160313970183121F100030831641
:100160008500FA308600F0308700831287118316ED
:100170000108C0398100831290018B168C1EC4289F
:100180008C1EC0281A08BE28952CF83083168600CD
:100190008312DC015C08073C031CDB285B1CD228B3
:1001A0008614D3288610D4280615D62806110310E5
:1001B000DB0CDC0ACA28FA3083168600831208009A
:1001C0002030E900E501E601E701E8016008FA00F6
:1001D0005F08F9005E08F8005D08F7000310771C5F
:1001E000FF286108E50762080318620FE607630845
:1001F0000318630FE70764080318640FE807E80CA7
:10020000E70CE60CE50CFA0CF90CF80CF70CE90B12
:10021000EE28080083180F29683084008313F70143
:10022000F801F901FA01E801E901EA01EB016708C7
:1002300066046504640403194D292030EC000310A2
:10024000E00DE10DE20DE30DE80DE90DEA0DEB0D1A
:1002500067086B02031D362966086A02031D3629EA
:1002600065086902031D362964086802031C4729D2
:100270006408E8026508031C650FE9026608031CB0
:10028000660FEA026708031C670FEB020314F70D01
:10029000F80DF90DFA0DEC0B1F2968088000840A8F
:1002A00069088000840A6A088000840A6B0880005C
:1002B0000800D9014430D80006140230F700F70BCB
:1002C0005F290000BF30DB00C520DA015A08073C77
:1002D000031C92295908FA005808D80A0319D90AA8
:1002E000DB007A08DC00DD015D08073C031C822985
:1002F00079290310DE0C8618DE1706157F290611F2
:10030000DD0A74295E08F8005B08840083135C181A
:100310008317780880000230F700F70B8D29000062
:10032000DA0A6629061047083F39031DA429D201BD
:1003300052080F3C031CA329283052078400831362
:100340008001D20A98296C2BC413C5133F30C6050F
:10035000C7051F30C805D2015208063C031CFD2901
:1003600044305207F800FA010318FA0A7808D80056
:100370007A08D9004430520784008313000EF70036
:100380000F30F7057708DB005B08DC000A30DD0082
:10039000F701F8015C0803105D18F707F70CF80C7B
:1003A000DD18F707F70CF80C5D19F707F70CF80CD8
:1003B000DD19F707F70CF80C5D1AF707F70CF80CC6
:1003C000DD1AF707F70CF80C5D1BF707F70CF80CB4
:1003D000DD1BF707F70CF80C443052078400831339
:1003E00000080F397807DA00580884008313591879
:1003F00083175A088000D20AAC294A0CF700F70C80
:100400003F30F7057708DC01DB01DA01D9005C0831
:10041000E0005B08DF005A08DE005908DD00E40157
:10042000E3010530E200B530E100E0207A08D700B2
:100430007908D6007808D5007708D4004A0803392F
:10044000D300D3080319562A6E30D407013003189D
:100450000230D507003003180130D60700300318EA
:100460000130D7075308013C0318442A6D30D407E4
:10047000013003180230D507003003180130D607C9
:10048000003003180130D7075308023C0318562ADE
:100490006D30D407013003180230D507003003183F
:1004A0000130D607003003180130D7070130480269
:1004B0002F20F800D407003003180130D507003092
:1004C00003180130D607003003180130D707D308CE
:1004D000031D762A4808023C0318762A0130D40707
:1004E0000318D50A0319D60A0319D70A013047029F
:1004F000D407003003180130D5070030031801304D
:10050000D607003003180130D7075708E000560817
:10051000DF005508DE005408DD00E401E301E201DC
:100520001830E100E0207A08DB007908DA0078086A
:10053000D9007708D800F801F901FA0146085807F0
:10054000D4005908D50078080318780FD5075A0841
:10055000D60079080318790FD6075B08D7007A0808
:1005600003187A0FD7075708E0005608DF00550830
:10057000DE005408DD00E401E301E2013C30E1006B
:10058000E0207A08DB007908DA007808D9007708DB
:10059000D800F801F901FA0145085807D4005908B4
:1005A000D50078080318780FD5075A08D6007908BF
:1005B0000318790FD6075B08D7007A0803187A0F5B
:1005C000D7075708E0005608DF005508DE0054083A
:1005D000DD00E401E301E2013C30E100E0207A08C3
:1005E000DB007908DA007808D9007708D800F8012C
:1005F000F901FA0144085807D4005908D5007808D1
:100600000318780FD5075A08D60079080318790F10
:10061000D6075B08D7007A0803187A0FD7074F3040
:10062000D4023730031C3830D502F430031CF530C7
:10063000D6021430031C1530D7028B12D201520897
:100640000F3C031C6B2B52080F3C283EF800FA01AC
:100650000318FA0A7808D8007A08D900DB010408E0
:10066000DA005B10831B5B1483145C3084008313FB
:100670005708E3005608E2005508E1005408E0007E
:10068000E701E601E5010A30E4000A215A08840086
:1006900083135B1883175808840083135918831732
:1006A0005C08800083105708E3005608E2005508F4
:1006B000E1005408E000E701E601E5010A30E4004A
:1006C0000A217A08D7007908D6007808D50077087B
:1006D000D400D20A1F2B8B16080006146F2B702B28
:1006E00055088038D700DB00C5205608DB00C52040
:1006F000792B7A2B061008008C1E6D2C8C1E7E2BFD
:100700001A08D00050080D3C031D6D2C87150D30C4
:100710000C1E882B99000A300C1E8C2B99003E3041
:100720000C1E902B9900D0015008D10050080D3CB0
:10073000031D9E2B51080C3C0319D72B8C1E9E2B9E
:100740001A08D00050081B3C0319A82BD008031925
:10075000D72B5008083C031DBE2BD1080319BE2B14
:1007600008300C1EB12B990020300C1EB52B9900BF
:1007700008300C1EB92B9900D103D62B51080B3C25
:10078000031CD62B50082F3C0318D62B5008393C9D
:10079000031CD62B50080C1ECB2B99005108D10AF4
:1007A000383E84008313303050028000962B0D3089
:1007B0000C1ED82B99000A300C1EDC2B9900500817
:1007C0001B3C03196C2C420EF700F030F70577083C
:1007D0004304C400400EF700F030F70577084104E9
:1007E000C5003E0EF700F030F70577083F04C6005D
:1007F000380EF700F030F70577083904C7003A0ED5
:10080000F700F030F70577083B04C8000130C90055
:100810003C0EF700F030F70577083D04CA00803041
:10082000CB00D1015108073C031C332C4430510745
:1008300084008313000EF7000F30F70577083F2080
:100840000C1E202C990044305107840083130008AB
:100850000F393F200C1E2A2C990020300C1E2E2C04
:100860009900D10A122C0D300C1E342C99000A303C
:100870000C1E382C9900D3014430D2000E30D50024
:10088000D6016D231030D500A930D6006D23061493
:100890000230F700F70B4A2C0000BE30DB00C52009
:1008A000D4015408073C031C6A2C5308FA00520870
:1008B000D20A0319D30A840083137A188317000815
:1008C000D500DB00C5200230F700F70B652C0000D7
:1008D000D40A512C061059218711992C84018313B5
:1008E0001F3083058316031787110C3003139900FB
:1008F000A23098009030831298000F30CD00423023
:10090000CC000330CE00CF01831603170908C0398D
:10091000890003131F129F120030031788008312EF
:100920008701880189010313A0285921C0308B0455
:060930007C2B982C9A2C90
:04400E00F40CFF3F70
:00000001FF
;PIC16F882
;CRC=5C0B  CREATED="05-jun-11 19:55"
